:020000040000FA
:10000000085400206D0200009302000095020000D9
:100010009702000097020000970200000000000015
:100020000000000000000000000000009702000037
:10003000970200000000000097020000853C0000CD
:100040003D1C00009702000097020000970200008C
:1000500097020000FD4100004943000097020000A4
:10006000970200009702000097020000970200002C
:100070009702000097020000E10A000097020000CA
:100080009702000097020000694A0000313D00001D
:10009000613D0000953D0000C53D0000213E00008F
:1000A000913E0000970200009702000097020000B6
:1000B00097020000970200009702000097020000DC
:1000C000970200009702000097020000C53E000062
:1000D000253F00009702000097020000590B000026
:1000E000050D0000970200000000000097020000CC
:1000F000970200009702000097020000970200009C
:10010000970200009702000097020000970200008B
:1001100000000000000000009702000097020000AD
:10012000970200009702000097020000954400002B
:1001300097020000E14500002D47000097020000F3
:1001400000000000000000000000000000000000AF
:100150009702000097020000793F0000ED3F000089
:10016000000000000000000000000000000000008F
:10017000000000000000000000000000000000007F
:10018000000000000000000000000000000000006F
:10019000000000000000000000000000000000005F
:1001A000000000000000000000000000000000004F
:1001B00081400000970200009702000097020000B3
:1001C00097020000970200009702000097020000CB
:1001D00097020000970200009702000097020000BB
:1001E00097020000970200009702000097020000AB
:1001F000970200009702000097020000711D0000A6
:10020000751F000097020000970200000000000028
:10021000970200009702000097020000970200007A
:10022000970200009702000097020000970200006A
:10023000970200009702000097020000970200005A
:10024000970200009702000097020000970200004A
:10025000970200009702000097020000970200003A
:100260009702000097020000970200004EF68850A7
:10027000CEF20000016841F47001016000204FF0EF
:10028000005101F5004241F8040B9142FBDB00F004
:1002900003B8FEE7FEE7FEE7DFF80CD000F0F0FB66
:1002A00000480047B9530000085400200138FDD130
:1002B00070470000EFF3108072B67047EFF31080C4
:1002C0007047EFF3108062B6704730BF704780F31D
:1002D00011887047EFF311807047D2B201E000F847
:1002E000012B491EFBD270470022F6E710B51346DA
:1002F0000A4604461946FFF7F0FF204610BD421C8F
:1003000010F8011B0029FBD1801A704780EA010216
:1003100010B502F00043400022D04A001FD0010E69
:1003200001EB1261C0F35600C2F3560240F4000024
:1003300042F40002A0FB022000047F39140400D024
:10034000401C50EA124001D44000491EC2B20C06C3
:1003500004EBD010401C4008802A02D003E00020AB
:1003600010BD20F00100002900DA0020184310BD64
:1003700030B480EA010202F0004530F0004221F082
:10038000004013D090B1C30DD40DC2F31601C0F3D9
:100390001600E41A41F4000140F400027D34914259
:1003A00001D3641C00E04900002C02DA30BC0020BC
:1003B00070474FF400000023914201D3891A034390
:1003C00040084FEA4101F7D151B1914202D14FF0BB
:1003D000004105E002D24FF0010101E06FF00101A0
:1003E00003EBC450284430BC00F09EBA2DE9FE4F08
:1003F000804681EA0300C00F0C46009021F00041C6
:1004000023F00045B8EB0200A94105D24046214641
:1004100090461C460B46024623F00040104347D04E
:10042000270DC7F30A00C3F30A510290401A019046
:1004300040286BDAC3F3130040F4801B0098924607
:1004400020B10023D2EB030A63EB0B0B0198594652
:10045000C0F14002504600F036FA06460D465046BE
:100460005946019A00F04EFA10EB08006141002451
:1004700087EA115284EAE7731A4340D0009A62B3C4
:10048000019A012A4FEA075215DC001B61EB0201B9
:100490004FF0004202EA0752CDE90042001C41F54C
:1004A000801132462B4600F085FA03B0BDE8F08F8C
:1004B00040462146F9E7001B61EB0201001C41F5B3
:1004C000801300185B412018A2F5001747EB0301C9
:1004D00040EAD570B6196D4111E06D084FEA360655
:1004E00045EAC0754FEA0752001B61EB0201001C90
:1004F00041F5801149084FEA300000195141324658
:100500002B4603B0BDE8F04F00F045BA0098012239
:1005100040000023D0EB020263EBE0730098214619
:100520004FEAE074B8EB000061EB0401E9E783F007
:1005300000435BE781F0004158E72DE9FE4F81EA77
:10054000030404F0004421F0004100944FF0000B3C
:1005500023F0004350EA01045ED052EA03045BD06A
:10056000C3F30A54C1F30A552C44A4F2F3340194A2
:10057000A0FB0254C1F3130141F48011C3F3130330
:1005800043F4801301FB024400FB034E840A970AE4
:1005900044EA815447EA8357A4FB076802958D0A11
:1005A00005FB07854FEA932C04FB0C542705029D9D
:1005B0004FEA065847EA1637B5EB08056EEB070C0D
:1005C000870E920E47EA811742EA8312A7FB0201C7
:1005D000B6EB0B0164EB00042B0D43EA0C335E1801
:1005E00044EB1C50DA465146E7FB0201C5F3130405
:1005F0004FEA0B3343EA14534FEA0432019C43EAB7
:100600000603A4F10C040294009CCDE900B400F0B0
:10061000D1F903B0BDE8F08F00200146F9E72DE9DC
:10062000F04D81EA030404F0004B21F0004514462C
:100630004FF0000A23F0004150EA050220D054EAAE
:1006400001021DD0C5F30A570246C5F31303C1F3D7
:100650001300C1F30A5640F4801543F48013A7EB4E
:100660000608101BD64608F2FD3873EB050002D3CE
:1006700008F1010801E092185B41B8F1000F03DABC
:1006800000200146BDE8F08D00204FF480110646A1
:1006900084460EE0171B73EB050705D3121B63EBB3
:1006A000050306434CEA010C49084FEA3000921852
:1006B0005B4150EA0107EDD152EA030012D082EA11
:1006C000040083EA0501084305D0101BAB4106D2A4
:1006D0000122002306E000224FF0004302E06FF009
:1006E000010253101AEB06004CEB085110EB0A0004
:1006F00041EB0B01BDE8F04D00F04DB9962300220F
:10070000114600F01AB90EB540F2334102910021B2
:10071000CDE900110A460B4600F04CF903B000BDCC
:1007200020F00040C10DC0F3160040F400007F2906
:1007300001DA00207047962903DCC1F19601C84018
:10074000704796398840704770B5C1F30A5201F07E
:1007500000450024C1F3130140F2FF3341F480113E
:100760009A4201DA002070BD40F233439A42A2F26D
:10077000334203DC524200F0B5F800E090402C43D5
:10078000F1D0404270BDC1F30A5210B5C1F313015C
:1007900040F2FF3341F480119A4201DA002010BD8B
:1007A00040F233439A42A2F2334203DC524200F059
:1007B00099F810BD904010BD00F0004230F00040AC
:1007C0000AD0C10D01F56071C0F3160042EA015173
:1007D000C2084007114370470020014670470000DF
:1007E00030B5041E71F1000404DB4FF000444042B8
:1007F00064EB0101141E73F1000405DB1C464FF08D
:100800000043524263EB0403994208BF904230BD5B
:10081000002801DBC0F10040002901DBC1F10041EB
:1008200081427047002801DBC0F10040002901DB54
:10083000C1F100418842704730B50B4601460020A7
:100840002022012409E021FA02F59D4205D303FA92
:1008500002F5491B04FA02F52844151EA2F1010213
:10086000F1DC30BD2DE9F05F0546002092469B4645
:1008700088460646814640241BE0284641464746B6
:10088000224600F02FF853465A46C01A914110D321
:1008900011461846224600F016F82D1A67EB01089B
:1008A0004F4622460120002100F00DF817EB000909
:1008B0004E41201EA4F10104DFDC484631462A46A1
:1008C0004346BDE8F09F202A04DB203A00FA02F1FB
:1008D000002070479140C2F1200320FA03F319432E
:1008E00090407047202A04DB203A21FA02F00021D0
:1008F000704721FA02F3D040C2F120029140084330
:1009000019467047202A06DBCB17203A41FA02F03D
:1009100043EAE07306E041FA02F3D040C2F120025C
:1009200091400843194670470029A8BF7047401CF2
:10093000490008BF20F00100704710B4B0FA80FCF5
:1009400000FA0CF050EA010404BF10BC704749B132
:10095000CCF1200421FA04F411FA0CF118BF0121A2
:1009600021430843A3EB0C01CB1D4FEA00614FEA82
:10097000102042BF002010BC704700EBC350104451
:100980000029A4BF10BC7047401C490008BF20F0DC
:10099000010010BC704710B5141E73F1000408DA92
:1009A000401C41F1000192185B411A4301D120F033
:1009B000010010BD2DE9F04D92469B4611B1B1FAF0
:1009C00081F202E0B0FA80F220329046FFF77BFF1E
:1009D00004460F4640EA0A0041EA0B0153465A46D4
:1009E000084313D0114653EA010019D0C8F1400260
:1009F0005046FFF777FF05460E4650465946424699
:100A0000FFF761FF084305D0012004E02046394686
:100A1000BDE8F08D0020054346EAE0762C433743DD
:100A20000A986305E40AA0EB08000022FD0A44EAE4
:100A300047540A3002D500200146E9E701051019A4
:100A40006941DDE9084500196941BDE8F04DA2E7BB
:100A5000C1F30A52C1F3130140F2FF3341F4801194
:100A60009A4202DA00200146704740F233439A422C
:100A7000A2F2334202DC5242FFF734BFFFF723BF3A
:100A8000064C074D06E0E06840F0010394E80700DB
:100A900098471034AC42F6D3FFF702FCC05A00006E
:100AA000E05A000030B58C1810F8012B12F00F033B
:100AB00001D110F8013B120906D110F8012B03E017
:100AC00010F8015B01F8015B5B1EF9D101E001F850
:100AD000013B521EFBD1A142E6D3002030BD0000F5
:100AE00010B500210E4800F021F80E4A00210C48F4
:100AF00000F020F80B4800880B49098860F30B01CF
:100B000009480180008820F4805000F58050064993
:100B100008800846008820F40050088010BD0000BE
:100B200000800340880500200603002001228A403F
:100B3000C260704710B503464C0140342344002086
:100B400002E09C6810C2401CDC6804F480740CB99C
:100B50000828F6D310BD000070B50021554800F0FC
:100B60003DFA044604B970BDB4F5004F0BD1002125
:100B7000504800F046FA50490870504A50494D48D4
:100B800000F0D8F9EFE70D2C04D90021494800F016
:100B900038FAE8E700204B4908604749087048499F
:100BA000086046490860601E00EB4000464911F8A5
:100BB0002000C0F34010002859D0444800210160B3
:100BC0004160006864F314404049086001223948DC
:100BD00000F0FCFA012C06D0022C05D0082C0AD01B
:100BE000092C28D108E000BF4320394908700120B2
:100BF000384908603AE000BF37480078401C374960
:100C00000978884216D036483349097800EB01103C
:100C10002E4991E82C00C96880E82C00C1602E485C
:100C20000078401C2C49087008460078322801DB07
:100C3000002008701AE02B480078401C2A490978E7
:100C4000884212D029482749097800EB01101F4D2E
:100C50002ECD2EC023480078401C2249087008463B
:100C60000078142801DB0020087000BF20E0032C6E
:100C700004D00B2C06D00D2C14D10BE041201449CC
:100C8000087010E000201A4908701A4800681A49D4
:100C9000088008E0002019490870164800681849C3
:100CA000088000E000BF00BF2146024800F07BF949
:100CB00000BF58E700000440C0030020B803002034
:100CC000B4030020F400002040590000DC0500209F
:100CD000CD030020D4000020D0030020D103002049
:100CE0000C060020F0030020F10300208C120020ED
:100CF000CA0300201403002044030020CB0300207B
:100D00004003002070477CB51446002501950095EE
:100D1000002300BF056A05F40045002DFAD1B32277
:100D2000022C04D0032C06D0042C1AD112E000258A
:100D3000ADF8025016E04FF40055ADF802506B10BC
:100D40004FF6FF75ADF80450ED10ADF8065042F0C7
:100D5000400207E04FF40055ADF802504FF49053B5
:100D600000E07CBD00BF0D78C5F3C015ADB10D78B6
:100D7000C5F380154DB10D89ADB2ADF804508D6845
:100D8000C5F30C45ADF8065007E00025ADF804505A
:100D90008D68C5F38C15ADF806500D78C5F3C015F8
:100DA0004DB10D88C5F340252DB1BDF8065045F471
:100DB0000045ADF806500D78C5F3C0154DB10D884E
:100DC000C5F300252DB1BDF8065045F48045ADF8BA
:100DD00006500D78C5F3C0153DB90D88C5F3402503
:100DE0001DB90D88C5F300251DB143F4805342F0B1
:100DF00040020D78C5F38015ADB1BDF800508E8866
:100E0000B6B23543ADF80050BDF802504E68C6F397
:100E10000C463543ADF80250BDF8025045F440454C
:100E2000ADF802500DE0BDF802504E68C6F38C16C6
:100E30003543ADF80250BDF8025045F40045ADF819
:100E400002500D7805F00F0545F080052B430D7815
:100E5000C5F340150DB143F480634262BDF8045000
:100E60008562BDF80650C562BDF800500563BDF847
:100E70000250456383630D68C5F30445056200BFF6
:100E80006FE700002DE9F04103460D461646B5FB1D
:100E9000F6F1B5FBF1F0B04200D9491C27E013226E
:100EA00022E0B1FBF2F404FB02F088421BD1101FD8
:100EB000DFF8448038F810C0186887B247F0410066
:100EC0001860601E00F03F0040EA0C0CC3F80CC034
:100ED000601EC0F3831098611F6004FB02F0B5FB35
:100EE000F0F0BDE8F081521E042ADAD2491CB1F5B7
:100EF000984FD4D90020F4E7E0550000F0B5034640
:100F000000200AE010C90546401C5C55904204D2FE
:100F1000C4F307270546401C5F559042F2D3F0BD4D
:100F2000016841F0010101607047016821F0010191
:100F30000160704710B503460C469968C1F306205E
:100F40002060C8B2106001F4004008B1012010BD5B
:100F50000020FCE70122026000BF026A02F40042A6
:100F6000002AFAD1B0224262002242638263012148
:100F700007E000BF026A02F40042002AFAD10162CF
:100F8000491C2029F5D90C224262012107E000BF4B
:100F9000026A02F40042002AFAD10162491C2029A7
:100FA000F5D942687047B1F5004F01D1426810E0B1
:100FB00000BF026A02F40042002AFAD1082242620B
:100FC00001F03F02026200BF026A02F40042002AFE
:100FD000FAD1704702680A4302607047024611B1B5
:100FE00001290AD101E0106909E0D2F8403198B234
:100FF000D2F8443140EA034001E0002000BF00BFC6
:101000007047024631B1012909D002290ED00329C7
:101010001AD112E050686FF01F03536016E0D2F847
:101020000001D2F8043140EA03400FE0D2F8200179
:10103000D2F8243140EA034008E0D2F86001D2F847
:10104000643140EA034001E0002000BF00BF704768
:101050007CB51446002501950095002300BF056A64
:1010600005F40045002DFAD1B322022C04D0032C44
:1010700006D0042C1AD112E00025ADF8025016E07B
:101080004FF40055ADF802506B104FF6FF75ADF8F8
:101090000450ED10ADF8065042F0400207E04FF466
:1010A0000055ADF802504FF4905300E07CBD00BFF6
:1010B0000D78C5F3C015ADB10D78C5F380154DB1F0
:1010C0000D89ADB2ADF804508D68C5F30C45ADF88F
:1010D000065007E00025ADF804508D68C5F38C1567
:1010E000ADF806500D78C5F3C0154DB10D88C5F3A8
:1010F00040252DB1BDF8065045F40045ADF8065029
:101100000D78C5F3C0154DB10D88C5F300252DB17F
:10111000BDF8065045F48045ADF806500D78C5F38E
:10112000C0153DB90D88C5F340251DB90D88C5F31F
:1011300000251DB143F4805342F040020D78C5F301
:101140008015ADB1BDF800508E88B6B23543ADF80C
:101150000050BDF802504E68C6F30C463543ADF85A
:101160000250BDF8025045F44045ADF802500DE084
:10117000BDF802504E68C6F38C163543ADF80250E8
:10118000BDF8025045F40045ADF802500D7805F069
:101190000F0545F080052B430D78C5F340150DB1C3
:1011A00043F480634262BDF804508562BDF8065086
:1011B000C562BDF800500563BDF802504563836306
:1011C0000D68C5F30445056200BF6FE72DE9F841DE
:1011D00005460C4617460020009000264FF0770881
:1011E0000FB148F00808C5F884802068C0F30440B7
:1011F000C5F8800000BFD5F8800000F4004000284A
:10120000F9D155F8900F80B2ADF80000686880B24F
:10121000ADF80200A868903D86B2BDF8020000F467
:10122000804070B1BDF80000BDF80210C1F30C01A0
:1012300040EA01406060206820F0400040302060BB
:1012400004E0BDF80200C004400B606006F40040FA
:1012500068B1206866F303002060207800F00F0278
:1012600005F19C0104F10800FFF748FE03E0206847
:1012700020F00F002060BDE8F88100002DE9FF5F3D
:101280000546C3480078532804D1C24EFF274FF0CB
:10129000020804E0C04E4FF47F474FF40078BF4887
:1012A000D0F80090BE480078FFF728FA83464946F8
:1012B000FFF72CF881464846FFF77EFA0022B94B2B
:1012C000CDE90001FFF792F8CDE90201FFF75BFAE3
:1012D000044604B901244FF07E51B0480068FFF77E
:1012E00097FA05D20120B0490880B0490C8022E06D
:1012F000AF49AA480068FFF78BFA14D2A7480068E4
:10130000FFF75AFA0022A74BCDE90001FFF76EF86C
:10131000CDE90201FFF737FAA3490880A048007819
:10132000A249088007E04EF660209F490880B4FB80
:10133000F0F09E49088000209E499F4A03C29A48C7
:101340000088FFF7E0F9CDE902019B480CC802983C
:10135000FFF7F3F8984A03C293480088FFF7CEF9E5
:1013600081468E4801684846FFF702F88146DFF85B
:101370004CA249465046FEF7C9FF82465046FFF749
:101380001BFA0022874BCDE90001FFF72FF8CDE9CA
:101390000201FFF7F8F98A4908608A495046FEF7CA
:1013A000E7FF8346FFF708FA00227E4BCDE90001F4
:1013B000FFF71CF8CDE90201FFF7E5F98249086063
:1013C00008460068322801D2322008607F49504622
:1013D000FEF7CEFF8346FFF7EFF90022714BCDE910
:1013E0000001FFF703F8CDE90201FFF7CCF97849D6
:1013F000086008460068192801D2192008606B4867
:101400000088012812D16E480068724908606A4855
:10141000D0E90010704AC2E900106B4800686F49BB
:1014200008606B4800686E4908605AE0624903C969
:10143000694A03C25D480088FFF765F9CDE90201FA
:1014400065480CC80298FFF778F8634A03C257480A
:101450000088FFF753F983465146FEF757FF82464F
:101460005046FFF7A9F900224E4BCDE90001FEF7E7
:10147000BDFFCDE90201FFF786F9564908605149E1
:101480005046FEF775FF8346FFF796F90022454B5D
:10149000CDE90001FEF7AAFFCDE90201FFF773F9DC
:1014A0004E49086008460068322801D232200860A0
:1014B00046495046FEF75CFF8346FFF77DF9002260
:1014C000384BCDE90001FEF791FFCDE90201FFF7AE
:1014D0005AF94349086008460068192801D21920C2
:1014E000086040494846FEF711FF814635494846A5
:1014F000FFF78EF901D2DFF8CC9049464FF08040DB
:10150000FEF704FF8346FFF70BF9374908600846EA
:101510000068000935490860C5B3002523480088E4
:10152000334908802148008832490880FF2500BFE0
:101530001D480088304908803946304602F02CFEAC
:10154000194802883946304602F040FE00223946EA
:10155000304602F043FE4146304602F02BFE27485B
:101560000078312807D126480078312807D125484E
:1015700000780B2803D03946304602F014FE2DB116
:10158000012021490860002020490860BDE8FF9F34
:101590009001002000500340004003403002002032
:1015A000280200200000E03F220200201E0200204E
:1015B00000606A4780841E41480200200024F448ED
:1015C000580200200000A0418802002000002041B5
:1015D000840200205C0200205002002078020020DB
:1015E0007402002000007A443403002038030020F5
:1015F000200200202602002024020020BA01002040
:10160000BB010020BD0200201400002018030020B0
:101610001B480068642802D26420194908601848F1
:1016200000684EF66021884207D2154800881549A7
:10163000088001201449088012E04EF6602011490C
:1016400008800F48006847F2305108444900B0FB59
:10165000F1F00D4908800846008808B9012008808B
:101660000848008809490860084600680649098852
:1016700048430649086004480088054908807047C7
:101680000802002012020020100200200C0200209C
:10169000140200202DE9F0473D4804683D480078D9
:1016A000FFF72CF805462146FEF730FE04463A487F
:1016B00001682046FEF75CFE04462046FFF77CF8F2
:1016C00005460022354BFEF791FE0746FFF75BF813
:1016D000334908700846007808B90120087030487E
:1016E0000078304908703048006830490860284860
:1016F00001682E480068FEF73BFE2C4908602C4824
:101700000088FEF7FBFF0546284801682846FEF7DB
:10171000FDFD26490860274924480068FEF728FE99
:101720008146FFF749F8074600221C4BFEF75EFE94
:101730000546FFF728F82049088019480078FEF789
:10174000DDFF0546194801682846FEF7DFFD174909
:10175000086008460068FFF72FF8074600220F4B85
:10176000FEF744FE0546FFF70EF88146FEF7C6FF7A
:101770000E4908601148007818B110480078082810
:1017800004D101200E49086003F014F9BDE8F08788
:10179000C8020020D2020020CC0200200000E03F5E
:1017A000D1020020D0020020C4020020C00200208C
:1017B000D801002000002041BE020020BD02002010
:1017C000100000202DE9F0410425ED1C4FF6FC70BF
:1017D000054000202E490870002431E04FF47C477A
:1017E00004FB057797F80080B8F1590F09D1294813
:1017F00039680160601C2649087045202649085553
:101800001CE0B8F1FF0F03D04E202349085515E026
:10181000422021490855002609E03868401C18B1CB
:101820004E201D49085508E03F1D701C86B2E9177F
:1018300005EB9171B6EBA10FEFDB00BF601C84B22A
:10184000FF2CCBD31248007860B11248408836286C
:1018500006D010484088382802D038200D494880EA
:10186000BDE8F08159200B490880382048800026C7
:1018700006E00948805D422800D1F1E7701C86B27D
:10188000FF2EF6D34FF47C4000F078F900BFE7E775
:10189000930100208C010020380400202DE9F04144
:1018A00006460F464FF47F411B4802F09FFC85B26D
:1018B0001A48046801201A4908601A4800780B2861
:1018C00001D1BDE8F0811748007808280AD101222B
:1018D0003946304602F07AFC13480088401C124911
:1018E0000880EEE7114802883946304602F06EFC67
:1018F0003946304602F057FC0D480078322809D1AD
:10190000E84385B205EB0440041B0A48046001204B
:101910000949086000BFD4E700100340D40200204A
:1019200010010020BD020020C0010020D8010020CD
:10193000BC020020D8020020040000202DE9F0475E
:10194000814628480078532809D1274884782748B9
:10195000057A274E4FF47F474FF4007807E022487E
:10196000447822480579234EFF274FF00208394674
:10197000304602F011FC4146304602F01BFCB9F142
:10198000000F2CD02146284600F046FC1A4800786B
:1019900002280BD11948006840B91948006828B1DD
:1019A00000223946304602F0E1FB05E040F20442F5
:1019B0003946304602F0DAFB124802883946304692
:1019C00002F004FC00223946304602F007FC414692
:1019D000304602F0F1FB3946304602F0E4FBBDE848
:1019E000F0870000900100206C5A0000585A000057
:1019F0000040034000500340BD0200204000002092
:101A000034000020D801002010B5164800780B28BB
:101A100000D110BD1348007808280CD11248048862
:101A2000012000F0CBF801200F490880FFF786FF66
:101A30000D48048013E001200C4908600C48007830
:101A4000312806D1012000F0B9F80020FFF776FF19
:101A500005E0002000F0B2F80120FFF76FFF00BFA3
:101A6000D7E70000BD020020D801002010000020B0
:101A7000BC02002070B51348007813490978401A59
:101A8000C4B212480078052808DA042C00DA70BDC8
:101A90000E480078401C0D49087002E0642C00DA02
:101AA000F5E708480078084908700821084800F060
:101AB00053FBC043C5B22A460821054800F0CAFBC3
:101AC00000BFE4E71C03002029030020910100204F
:101AD000004006402DE9F04107460C4615464FF000
:101AE0000008022D03DA00202070BDE8F081681E96
:101AF000C5B24FF0000808E03878202800D006E092
:101B00007F1C08F1010000F0FF08A845F4DB00BFCE
:101B1000A8450BD1002604E020202070641C701C16
:101B2000C6B2AE42F8DB00202070DEE73846FEF792
:101B3000E6FBC6B2B046AE4208DA04E020202070D0
:101B4000641C701CC6B2AE42F8DB4546681E385CA9
:101B50002E2804D120202070641C681EC5B20026E7
:101B600005E0387820707F1C641C701CC6B2AE4241
:101B7000F7DB0020207000BFB7E70000014640F609
:101B800001200C4A5061104601600B48906000BF74
:101B90000848806800F002000028F9D10548C068B4
:101BA00040F60122104010B14FF0FF307047002086
:101BB000FCE7000000D00F40020042A410B504462C
:101BC0000821174800F092F80821154800F08BF81A
:101BD0002CB30821124800F0D4FA0A230422082169
:101BE0000F4800F0E5F90F48007802280BD10E48A5
:101BF000006840B90D48006828B10422082108484F
:101C000000F082F804E000220821054800F07CF88A
:101C1000012007490860074800780749087010BD8F
:101C200000300640BD0200204000002034000020AB
:101C3000D80000201C0300201D03002010B5012146
:101C40004FF0402000F058F8C4B221464FF0402039
:101C500000F049F804F08000F8B180214FF04020F6
:101C600000F044F80D4800780D49087001200D4936
:101C700008600D48006830B100200B490860012061
:101C80000A49086005E0012007490860002007496B
:101C90000860024800780649087010BD1C03002047
:101CA00023030020F0000020AC000020B000002042
:101CB000A603002002F001031BB1D0F800340B434F
:101CC00002E0D0F800348B43C0F8003402F0020385
:101CD0001BB1D0F820340B4302E0D0F820348B4302
:101CE000C0F820347047C0F81C147047D0F8102496
:101CF0008A43C0F810247047024611B1D2F8180484
:101D00007047D2F81404FBE702F001031BB1D0F8CE
:101D100008340B4302E0D0F808348B43C0F8083491
:101D200002F002031BB1D0F804340B4302E0D0F8F8
:101D300004348B43C0F8043402F004031BB1D0F820
:101D40000C340B4302E0D0F80C348B43C0F80C3455
:101D500002F4803323B1D0F8383543F0010303E0B7
:101D6000D0F8383523F00103C0F83835704700004B
:101D70002DE9F0474FF47F415E4802F037FA1FFA31
:101D800080F95D48D0F80080FF215C4802F02EFA0F
:101D900086B25B48046801215A48FFF7ADFFC5B21F
:101DA00029465848FFF79FFF574800780B2804D171
:101DB000294601F0F1FBBDE8F08705F0080070B39B
:101DC00008215048FFF792FF5048007850490870AA
:101DD0005048006850490870012050490860504937
:101DE000086049480078082807D14E4800884E49C5
:101DF000088001204D49086011E04D4800783128E5
:101E00000DD16FEA09001FFA80F909EB0840A0EB39
:101E100008084848C0F8008001204449086005F0DF
:101E20002000C0B120213748FFF760FF3748007815
:101E30004149087001204149086041480078312833
:101E400009D0F04386B206EB0440041B3D48046011
:101E500001203D49086005F0400088B14021294833
:101E6000FFF744FF294800783849087001203849B5
:101E7000086033480078312802D0012035490860D5
:101E800035480078532802D13448477801E0334878
:101E9000877805EA070010B339461A48FFF726FF8E
:101EA0001A4800782E4908701A4800682D490870B1
:101EB00001202D4908602D4908602148007831280B
:101EC00015D12B48007832280AD1F04386B206EBB0
:101ED0000440041B1B48046001201B49086006E005
:101EE00023480078332802D101201A49086000BF36
:101EF00061E7000000100340D402002000200340EE
:101F00001802002000300640BD0200201C03002003
:101F10001D0300201403002026030020D800002009
:101F200014010020C0010020E40100200400002072
:101F3000BC020020D802002020030020E400002082
:101F4000BA010020A40200200C0000202103002080
:101F5000E80000207C000020900100206C5A000066
:101F60001F03002028030020E000002018010020AB
:101F7000BB01002010B501210948FFF7BDFEC4B226
:101F800021460748FFF7AFFE04F0100030B10548C6
:101F900000680549087001200449086010BD000070
:101FA00000400640140300202A0300201C010020EA
:101FB000F0B502F001051DB1D0F800550D4302E067
:101FC000D0F800558D43C0F8005502F002051DB150
:101FD000D0F804550D4302E0D0F804558D43C0F805
:101FE000045502F004051DB1D0F808550D4302E078
:101FF000D0F808558D43C0F8085502F008051DB10A
:10200000D0F818550D4302E0D0F818558D43C0F8AC
:10201000185502F010051DB1D0F83C550D4302E0F3
:10202000D0F83C558D43C0F83C55002416E00125FE
:10203000A5400D4085B1D0F8C45F67000326BE40BF
:10204000B543C0F8C45FD0F8C45F6700C2F341165F
:10205000BE403543C0F8C45F651CECB2082CE6DB1B
:1020600003F001051DB1D0F80C550D4302E0D0F886
:102070000C558D43C0F80C5503F002051DB1D0F886
:1020800010550D4302E0D0F810558D43C0F810559F
:1020900003F004051DB1D0F814550D4302E0D0F84B
:1020A00014558D43C0F8145503F008051DB1D0F840
:1020B0001C550D4302E0D0F81C558D43C0F81C554B
:1020C00003F400751DB1D0F844550D4302E0D0F87B
:1020D00044558D43C0F8445503F440751DB1D0F804
:1020E00040550D4302E0D0F840558D43C0F84055AF
:1020F0001BB9D0F828550D4302E0D0F828558D4380
:10210000C0F82855F0BD000010B50146C1F30740E6
:102110000F4BDB6E01248440234033B1012303EBDA
:1021200040030C4C54F8230003E04300094C54F8DE
:102130002300C1F30722D0F82C350F249440A34389
:1021400001F00F0494402343C0F82C3510BD00006B
:1021500000E00F40805700000246002000EB8100A5
:102160001058704730B504460D46022229462046D5
:10217000FFF7A0FD0823042229462046FFF718FF99
:1021800030BD30B504460D46002229462046FFF7F3
:1021900091FD0823012229462046FFF709FF30BDA3
:1021A00030B504460D460823012229462046FFF794
:1021B000FFFE012229462046FFF77CFD30BD30B5E9
:1021C00004460D46022229462046FFF773FD0923E7
:1021D000012229462046FFF7EBFE30BD30B504460C
:1021E0000D46022229462046FFF764FD08230122FE
:1021F00029462046FFF7DCFE30BD30B504460D46CB
:10220000022229462046FFF755FD082301222946D0
:102210002046FFF7CDFE30BD30B504460D46022204
:1022200029462046FFF746FD08230122294620467D
:10223000FFF7BEFE30BD30B504460D4602222946EA
:102240002046FFF737FD0823012229462046FFF7E5
:10225000AFFE30BD002303EB8103C2507047000086
:1022600010B50F4801F0E2FC0E48FEF759FE0D488C
:10227000FEF770FE0C4A0D4801680A48FEF702FEA0
:102280000A210848FEF7A6FE064801F02DFB054886
:10229000FEF74BFE00210348FEF7B3FE10BD000021
:1022A000003400F00000044020A1070000030020DB
:1022B00010B50F4801F0BAFC0E48FEF731FE0D488C
:1022C000FEF748FE0C4A0D4801680A48FEF7DAFDA1
:1022D0000A210848FEF77EFE064801F0E5FA0548A7
:1022E000FEF723FE00210348FEF78BFE10BD000021
:1022F000013400F00010044020A10700000300207A
:102300002DE9F84F0446324850F824A0314850F8DF
:102310002400C0F302603049085C00902D4850F85A
:102320002400810C009861F346100090294850F871
:102330002400810D009861F3C3000090DFF89C90A9
:10234000244951F82410C1F31100FEF7D7F90546CE
:1023500029464846FEF70CF881464FF08241484630
:10236000FEF706F881461E494846FEF751FA03D2A9
:102370000A201C49085515E01B494846FEF752FA49
:1023800003D21F20174908550CE04846FEF714FAFF
:1023900007460022154BFEF729F80546FEF7D4F94B
:1023A000104908550B4850F82400C0F3110210489A
:1023B000009B0168504602F076FA20220021504628
:1023C00002F0B1FA7021504602F0B3FABDE8F88F7E
:1023D000005A0000A80500202659000000401C47B4
:1023E000000020419D0300200000F8410000E03F74
:1023F000000300207CB53F4800780B2875D13E488B
:10240000007820B13C480078401CC4B206E03B484C
:102410000078312801D1002400E00124384850F828
:1024200024000190374850F8240000903648007886
:10243000532806D1012C01D1022402E0022C00D144
:102440000124324850F824503148045D2146284682
:10245000FFF797FE20212F48FFF793FE40212D48DC
:10246000FFF78FFE2A4A5178284A5068FFF73EFC52
:10247000274A9178254A9068FFF738FC244A11785A
:10248000224A1068FFF732FC20212248FFF72EFC79
:1024900040212048FFF72AFCFF211F4801F07CFE65
:1024A0004FF47F411D4801F077FE00201C49086071
:1024B000042221462846FFF727FCFF211548FFF795
:1024C00012FC002017490860174908601749086086
:1024D0001749086017490860174800780199087083
:1024E00001200099086004E0FFE700F097FFFFF784
:1024F0008BFA7CBDBD020020DB010020BC02002065
:10250000745A00008C5A000090010020585A0000B4
:102510006C5A000000300640005003400040034069
:102520004C000020D8000020DC000020E00000204B
:10253000E4000020E80000201C03002010B5BD4886
:1025400001F074FBBB48401C01F070FBB948801CD3
:1025500001F06CFBB748C01C01F068FBB548001DDA
:1025600001F064FBB348401D01F060FBB148C01DA1
:1025700001F05CFBAF48083001F058FBAD48093072
:1025800001F054FBAB480A3001F050FBA9480B3076
:1025900001F04CFBA7480C3001F048FBA5480D307A
:1025A00001F044FB40214FF04020FFF7F9FD40F6D9
:1025B0000200FFF7A9FD40F60240FFF7A5FD41F23A
:1025C0000200FFF7A1FD41F20240FFF79DFD3C2113
:1025D0004FF04020FFF711FE80214FF04020FFF721
:1025E000D0FD9548FFF790FD9448FFF78DFD082139
:1025F0009348FFF7E4FD04219148FFF7EFFD914870
:10260000FFF782FD9048FFF77FFD30218F48FFF7ED
:1026100012FE8F48FFF778FD8E48FFF775FDC02149
:102620008A48FFF708FE8C48FFF76EFD8B48FFF7DE
:102630006BFD30218A48FFF7FEFD0B218848FFF72C
:10264000AFFD04218648FFF79CFD08218548FFF770
:10265000A7FD8548FFF758FD8448FFF755FD092180
:102660008348FFF77FFD01218248FFF799FD08218C
:102670008048FFF786FDB0217E48FFF791FD40219D
:102680007C48FFF77EFDFF217B48FFF789FD102185
:102690007A48FFF776FD20217848FFF772FD802108
:1026A0007648FFF76EFD40217448FFF76AFD7448D5
:1026B000FFF72AFD7348FFF727FD7348FFF724FD56
:1026C0007248FFF721FD7248FFF71EFD7148FFF7C2
:1026D0001BFD7148FFF718FD7048FFF715FD01213C
:1026E0006F48FFF799FD02216D48FFF795FD042122
:1026F0006B48FFF791FD08216948FFF78DFD102118
:102700006748FFF789FD20216548FFF785FD4021D7
:102710006348FFF781FD80216148FFF77DFD614837
:10272000FFF7F2FC6048FFF7EFFC6048FFF7ECFCB6
:1027300001215F48FFF770FD04215D48FFF76CFD44
:1027400002215B48FFF768FD08215948FFF719FD92
:1027500010215748FFF724FD20215548FFF711FDB0
:1027600040215348FFF70DFD80215148FFF718FD28
:1027700004215048FFF714FD02214E48FFF710FDD9
:1027800001214C48FFF70CFD08214A48FFF708FDDE
:1027900010214848FFF7F5FC20214648FFF700FDCF
:1027A00040214448FFF7FCFC80214248FFF7F8FC39
:1027B00001214148FFF7F4FC02213F48FFF7E1FC0B
:1027C00004213D48FFF7DDFC0A23042280214FF05D
:1027D0004020FFF7EDFB002280214FF04020FFF763
:1027E00093FA022211461E48FFF734FD01221146DA
:1027F0001B48FFF72FFD082211461948FFF72AFD55
:10280000082211461748FFF725FD202211461948D6
:10281000FFF720FD102211461648FFF71BFD80220E
:1028200011461448FFF716FD042211462148FFF710
:1028300011FD10BD000800F003080100030C0100A9
:10284000005000400210020002140200006000402C
:1028500001180200011C0200011003000114030012
:10286000007000400040024003000500030C05001A
:10287000005002400070024000D0034000100640AB
:1028800007000A0007040A0007080A00070C0A00EC
:1028900007100A0007140A0007180A00071C0A009C
:1028A0000020064007000B0007040B0007080B0080
:1028B00000300640004006400050064010B5A02100
:1028C0000F2000F091FDC021152000F08DFDC021EA
:1028D000162000F089FDC0214B2000F085FDC021AD
:1028E0004D2000F081FDC0214E2000F07DFD4021F3
:1028F000232000F079FD4021242000F075FD4021C7
:10290000252000F071FD0021262000F06DFD402102
:10291000272000F069FD4021282000F065FD2021DE
:10292000332000F061FD6021342000F05DFD602166
:10293000562000F059FD6021572000F055FD602120
:102940006C2000F051FD8021372000F04DFDA021CA
:10295000102000F049FD60217F2000F045FDA021FE
:10296000802000F041FDE0211E2000F03DFD0F2001
:1029700000F0F0FC152000F0EDFC162000F0EAFC61
:102980004B2000F0E7FC4D2000F0E4FC4E2000F06E
:10299000E1FC232000F0DEFC242000F0DBFC2520FD
:1029A00000F0D8FC262000F0D5FC272000F0D2FC57
:1029B000282000F0CFFC332000F0CCFC342000F0C5
:1029C000C9FC562000F0C6FC572000F0C3FC6C2068
:1029D00000F0C0FC372000F0BDFC102000F0BAFC75
:1029E0007F2000F0B7FC802000F0B4FC1E2000F037
:1029F000B1FC10BD10B54FF22440FDF757FC044860
:102A000001F06EF800F0E8FF0249086010BD000018
:102A1000820340420003002070B500F043FEFEF741
:102A2000D1FE15220821B448FDF757FC3020B349E8
:102A300008700020B24908600120B24908600A20ED
:102A4000B14908704FF07E50B0490860B049086045
:102A50000021B048B04AC2E90010B04A116051608C
:102A6000AF48B049086008460068FDF7A5FE044677
:102A700022460B46ACA1AE4802F01CF80822AD4934
:102A8000AB48FFF727F84FF4B470AB490860AB4987
:102A900008600420AA4908700320AA490870084663
:102AA0000078A749097810FB01F0A74908704FF496
:102AB000B470A64908600120A5490870A5490870AE
:102AC0000020A54908703220A44908703120A4498B
:102AD00008700020A34908700120A3490860A34999
:102AE0000860A3490860A34908603120A249087022
:102AF0000720A24908700120A149088042F2107005
:102B0000A0490860A048A1490860A1490860A148FF
:102B1000A14908600320A14908700020FEF7AEFB20
:102B20009F4800889F4908809F4800889F490880E7
:102B3000FEF76EFDFEF7AEFD00209D4908709D4832
:102B40009D49086001209D49086090209C490870BB
:102B50009C489D49086001F02DFF01F0F5FE3220F0
:102B60009A49087031209A490870012099490860F3
:102B700032209949087031209849087098490870A6
:102B800030209849087098480068984908800020CB
:102B900097490860974800780A2190FBF1F201FB01
:102BA0001200954908700846007894490870002082
:102BB00093490880FFF71EFCFF214FF04020FFF7EC
:102BC00092F8FF218F48FFF78EF8FF218E48FFF71C
:102BD0008AF8FF218D48FFF786F801208C490860AC
:102BE000814800688B4908708B4800783C388B49D5
:102BF000087000208A4908708A49087031208A4983
:102C000008708A490870002089490860894908606D
:102C1000894908604FF4F85088490880884908803D
:102C20000020884908608849086088490860884908
:102C300008608849086088490860884908608849B0
:102C40000860884908808849088088490880884940
:102C50000880884908808849088088490880884910
:102C6000088047F2305087490880874908808749A3
:102C700008808749088087490880874908808749F4
:102C800008808749088030208649087048700020F5
:102C90008549087001208549086085490860302011
:102CA000844908705C4800785D49087000208249BA
:102CB0000880824908808249087082490860312072
:102CC00081490870012081490860312080490870DD
:102CD00030208049087000207F4908607F490870D3
:102CE0004D4800787E49087032207E4908704E2099
:102CF0007D49087070BD0000AA030020BE010020BD
:102D0000000000206C000020280200202C0200207F
:102D1000300200200000F03F400200203802002076
:102D20000AD7233CEC01002025362E326600000035
:102D3000F44F00205B050020F0010020F801002086
:102D4000E1010020E0010020E2010020F401002068
:102D50009402002095020020BD020020BC02002049
:102D6000DA010020DB010020100000201400002008
:102D70001800002030000020DE010020DF010020CC
:102D8000D80100200802002000006145C802002090
:102D9000CC0200204054094CC4020020D202002082
:102DA00022020020240200201E0200202002002017
:102DB000C00300200C060020D403002028000020BF
:102DC000BF0100202C090020DC030020BA010020F4
:102DD000BB01002060000020B0010020B9010020EC
:102DE000BC010020BD010020140300204603002088
:102DF000F4000020F8020020CE030020CF030020C2
:102E00004A0300200040024000500240007002408F
:102E1000F0000020230300201C0300209603002064
:102E200025030020A70300208C0200201C020020A4
:102E3000240100202801002020010020AC010020F6
:102E4000AA010020300100203401002038010020B8
:102E50003C010020400100204401002048010020E6
:102E60004C01002076030020780300207A03002024
:102E70007C0300207E0300208003002082030020CA
:102E80008403002086030020880300208A0300209A
:102E90008C0300208E03002090030020920300206A
:102EA00094030020A501002097010020BC00002011
:102EB000C000002096010020560300205803002087
:102EC0009401002088000020950100208C00002043
:102ED000D7010020920100202C0100209101002048
:102EE00029030020FC020020900100201CB50948A5
:102EF00000F09CFE072044F21B1100231A46CDE986
:102F0000001005480168054800F028FC034800F05F
:102F100058FC1CBD001C00F0000300200080004095
:102F200010B5084800680849B0FBF1F04FF47A7119
:102F300000FB01F4204600F0F5FE00F091FE00F0E9
:102F400098FE10BD0003002040420F0010B5C94894
:102F500000F06CFEC849C94801F0D8F80122FF21F1
:102F6000C64801F00EF940F20442FF21C34801F0C7
:102F7000FDF84FF6FF72FF21C04801F027F900224B
:102F8000FF21BE4801F02AF90221BC4801F014F9E2
:102F9000FF21BA4801F007F901224FF47F41B748F9
:102FA00001F0EFF840F204424FF47F41B34801F0E2
:102FB000DDF84FF6FF724FF47F41B04801F006F99B
:102FC00000224FF47F41AD4801F008F94FF4007141
:102FD000AA4801F0F1F84FF47F41A84801F0E3F866
:102FE000A448401C00F022FEA349A54801F08EF839
:102FF0000122FF21A24801F0C4F840F20442FF215F
:103000009F4801F0B3F84FF6FF72FF219C4801F092
:10301000DDF80022FF219A4801F0E0F802219848EB
:1030200001F0CAF8FF21964801F0BDF801224FF4E3
:103030007F41934801F0A5F840F204424FF47F41EC
:103040008F4801F093F84FF6FF724FF47F418C48A0
:1030500001F0BCF800224FF47F41894801F0BEF82E
:103060004FF40071864801F0A7F84FF47F4184487F
:1030700001F099F87F48801C00F0D8FD7E49814816
:1030800001F044F80122FF217E4801F07AF840F275
:103090000442FF217B4801F069F84FF6FF72FF21DF
:1030A000784801F093F80022FF21764801F096F865
:1030B0000221744801F080F8FF21724801F073F892
:1030C00001224FF47F416F4801F05BF840F2044267
:1030D0004FF47F416B4801F049F84FF6FF724FF40F
:1030E0007F41684801F072F800224FF47F41654843
:1030F00001F074F84FF40071624801F05DF84FF48C
:103100007F41604801F04FF85A48C01C00F08EFD26
:1031100059495D4800F0FAFF0122FF215A4801F0A9
:1031200030F840F20442FF21574801F01FF8012215
:10313000FF21554801F04AF80022FF21524801F0D2
:103140004DF80221504801F037F8FF214E4801F0B8
:103150002AF801224FF47F414B4801F012F840F267
:1031600004424FF47F41484801F000F801224FF437
:103170007F41454801F02AF800224FF47F41424840
:1031800001F02CF84FF400713F4801F015F84FF4AE
:103190007F413D4801F007F83648001D00F046FD2C
:1031A00035493A4800F0B2FF0122FF21374800F0CC
:1031B000E8FF40F20442FF21344800F0D7FF01222B
:1031C000FF21324801F002F80022FF212F4801F0D0
:1031D00005F802212D4800F0EFFFFF212B4800F0F9
:1031E000E2FF01224FF47F41284800F0CAFF40F27D
:1031F00004424FF47F41254800F0B8FF01224FF40C
:103200007F41224800F0E2FF00224FF47F411F4837
:1032100000F0E4FF4FF400711C4800F0CDFF4FF4C4
:103220007F411A4800F0BFFF1248401D00F0FEFC2D
:103230001749184800F06AFF0122FF21154800F0E5
:10324000A0FF40F20442FF21124800F08FFF01224C
:10325000FF21104800F0BAFF0022FF210D4800F0C6
:10326000BDFF02210B4800F0A7FFFF21094800F035
:103270009AFF10BD000400F00303000400000340A7
:103280000010034000200340003003400040034092
:10329000030000040050034010B5154800F0C6FCC0
:1032A0001348401C00F0C2FC1148C01C00F0BEFCDA
:1032B0000F48401D00F0BAFC0D48801D00F0B6FC20
:1032C0000C480D49096801600B49496841600020BC
:1032D000FFF716F80120FFF713F80220FFF710F8A8
:1032E0000320FFF70DF80420FFF70AF810BD0000D7
:1032F000001800F0A80500202C59000010B54FF070
:10330000704000F093FC4FF0804001F0CDFB4FF097
:10331000804001F0B4FB0E4800684FF47A71B0FBB6
:10332000F1F04FF4C87100FB01F421464FF08040EA
:1033300001F0ABFB4FF0804001F0A9FB4FF0804063
:1033400001F0AAFB4FF0804001F094FB10BD00009B
:1033500000030020042806D11949096841F480318E
:10336000174A11602BE0052806D11549096841F478
:103370000031134A116022E0062806D1104909687D
:1033800041F480210E4A116019E00F2808D14FF056
:10339000E021096941F002014FF0E02211610EE0E5
:1033A00010280CD3A0F1100101F01F02012191405F
:1033B000A0F110025209034B53F82220116070470C
:1033C00024ED00E0CC58000010B5FCF773FF08B105
:1033D000012010BD0020FCE710B5FCF772FF08B11A
:1033E000012010BD0020FCE710B50A4683080A4CF6
:1033F00054F8233019688307DC0EFF23A340994358
:103400008307DB0E02FA03F319438308024C54F8D6
:103410002330196010BD0000305800002DE9F04144
:103420004C480078532808D14B4844784B484568AD
:103430004B4EFF274FF0020808E047488478474882
:103440008568484E4FF47F474FF40078464800782F
:103450000B2801D1BDE8F0813946304600F09CFED2
:103460004146304600F0A6FEFF214FF04020FEF717
:103470003AFCFF213D48FEF736FC3D4800783128F4
:1034800038D120213948FEF731FC40213748FEF77A
:103490002DFC21462846FEF729FC364800783128C5
:1034A00017D121462846FEF7B7FE33480288394631
:1034B000304600F08BFE00223946304600F08EFE8A
:1034C0004146304600F078FE3946304600F06BFE4B
:1034D0003EE021462846FEF754FE002221462846BB
:1034E000FEF712FC0120254908602548007825498F
:1034F00008702DE021462846FEF78EFE1E48028801
:103500003946304600F062FE00223946304600F06F
:1035100065FE4146304600F04FFE3946304600F029
:1035200042FE002220211148FEF7EEFB002240213E
:103530000E48FEF7E9FB01201349086013490860B3
:103540000F480078124908700D480078114908703A
:1035500000BF7FE7900100206C5A0000585A00001D
:103560000050034000400340BD02002000300640F0
:10357000BA010020BB01002022020020E000002050
:103580001C0300201F030020E4000020E8000020AE
:1035900020030020210300202DE9FC4105460E46B2
:1035A000324850F825703248007820B13048007811
:1035B000401CC4B206E02F480078312801D1002415
:1035C00000E001242C4850F8240001902B4850F8CA
:1035D000240000902A480078532806D1012C01D1FC
:1035E000022402E0022C00D101242648055D06EAEF
:1035F000050078B329463846FEF778FB2248007864
:10360000019908700120009908602048006878B18D
:1036100000201E4908601E4800681E4908600020FE
:103620001D490860002229463846FEF76DFB1AE066
:1036300017480068194908600120194908601648B0
:10364000006840B10020144908600022294638462D
:10365000FEF75AFB07E001200F49086004222946C3
:103660003846FEF751FBBDE8FC810000205A0000FF
:10367000DB010020BC020020745A00008C5A0000BC
:10368000900100206C5A00001C0300201000002054
:10369000140300202C0300204C00002030030020E5
:1036A0000400002070B5294800F0C0FA4FF4FA7009
:1036B000FCF7FCFDFF212648FEF763FD4FF4FA708E
:1036C000FCF7F4FD00BFFF212148FEF745FDC4B221
:1036D00041F28830FCF7EAFDFF211D48FEF73CFD72
:1036E000C5B2AC42EFD100BF00BFFF2C01D0601CBF
:1036F000C4B2184804700A2094FBF0F100FB11409A
:10370000154988700A2094FBF0F0C4B20A2094FB9B
:10371000F0F100FB1140104948700A2094FBF0F0D2
:10372000C4B20A2094FBF0F100FB11400A49087072
:103730000CB915200870FF210548FEF731FDFF2266
:1037400011460348FEF786FD70BD0000060800F034
:1037500000600240F8020020F90200202DE9F04F3D
:103760000E46DDE909C8022B02D14FF0080A01E03C
:103770004FF0000A544613B94FF0000A01E04FF031
:10378000040A4AEA04044460B6FBFCF7002100BFC7
:10379000891CB7FBF1FAAAF10105FF2DF8D80161E8
:1037A0004FEA827A4FEA1A6902F0300249EA052AA2
:1037B0004AEA020AA8F1010B4AEA0B040460BDE8D8
:1037C000F08F416841F00201416070472DE9F041FE
:1037D00006460F46FF21274800F008FD85B226481F
:1037E00002883946304600F0F1FC3946304600F098
:1037F000DAFCE84385B22148046805EB0440041B69
:103800001F48046000201F49086001201E4908600D
:103810001E480078312809D11D480078312805D08C
:103820003946304600F0B8FCBDE8F0811948006820
:1038300019490968884214D21848006818B1012053
:103840001749086009E00020124908600120134967
:103850000860002013490860E6E73946304600F06A
:103860009BFC00200B49086001200E49086000BF46
:10387000DAE70000002003402202002018020020A6
:10388000640200206400002018010020BA0100201A
:10389000BB0100201803002038030020A4000020F2
:1038A000A8000020080000201EB504460C4A07CAE4
:1038B0008DE80700022269462046FDF724FA084AEF
:1038C000603207CA8DE8070006480178019861F365
:1038D0000F200190022269462046FDF714FA1EBD12
:1038E000DC590000F80200201EB50446384A07CA19
:1038F0008DE80700022269462046FDF7A9FB3448FF
:10390000D0E903124069CDE90012029031480178F4
:10391000019861F30F200190022269462046FDF7CD
:1039200097FB2B4A243207CA8DE807002948017803
:10393000019861F30F200190022269462046FDF7AD
:1039400087FB234AD2E90C10926BCDE9010200916A
:10395000022269462046FDF77BFB1D4A3C3207CA1E
:103960008DE807001B480178019861F30F20019052
:10397000022269462046FDF76BFB154A483207CA0A
:103980008DE8070013480178019861F30F2001903A
:10399000022269462046FDF75BFB0D4A543207CAF6
:1039A0008DE80700022269462046FDF751FB084AD0
:1039B000603207CA8DE8070006480178019861F374
:1039C0000F200190022269462046FDF741FB1EBDF3
:1039D00040590000F802002070B53C48036E016FAA
:1039E00001F0004010B101F0700001E003F0300080
:1039F000202811D003DC38B1102815D10AE0302876
:103A00000CD0702810D10CE03148C3F3841650F864
:103A100026200BE02F4A09E02F4A07E047F23052F8
:103A200004E04FF4004201E0002070BD00BF01F04F
:103A3000004010B101F4006028B101F00040E0B98D
:103A400003F40060C8B9254805682048D0F86441EF
:103A500004F01F00401CC4F30426761C10FB06F083
:103A60004000B2FBF0F2C5F309005043C5F38926CC
:103A7000564300EB962243F4800303F4800018B30E
:103A800001F00040D8B101F0804090B101F0004059
:103A900010B101F4006028B101F0004048B903F40E
:103AA000006030B95600C1F38650401CB6FBF0F2FE
:103AB0000AE0C1F3C550401CB2FBF0F204E0C3F3CE
:103AC000C350401CB2FBF0F21046AEE700E00F40DE
:103AD000145400000024F40000093D0060E10F4090
:103AE0002DE9F04106464B48056E046F45F400652C
:103AF00025F4800544F400640566046705F00100C0
:103B000010B306F00100F8B966F001000540414825
:103B1000056604F0004038B104F0700030280AD087
:103B200004F07000702806D004F0004040B905F0A1
:103B30003000302804D14FF48050FCF7B7FB03E08D
:103B40004FF40020FCF7B2FB25F4FE6506F4FE609E
:103B50000543314804403049A13106EA01000443DD
:103B600006F0080044EAC0042A48056604671020ED
:103B7000FCF79CFB25F4005506F40050054324F4A3
:103B8000005406F40050044340202249886504F0A4
:103B9000004018B108460467056602E01D48056646
:103BA00004671E480540C14306EA0100054324F0AE
:103BB000FC5406F0FC50044306F0804040B145F44C
:103BC000800524F48004164906EA0100044301E05C
:103BD00024F0804406F4006080B94FF4004706E00A
:103BE0000C48006D00F0400000B102E07F1E002F85
:103BF000F6D100BF25F4006524F40064054805668D
:103C0000046708480540084805601020FCF74EFB93
:103C1000BDE8F08100E00F408FFFFF7FFEFF3FF81F
:103C200000004040F12FDE0F8801002010B5012177
:103C3000C0F30722094B1A4402F0704242F00072AE
:103C4000C0F30723054C2344C3F3130342EA431292
:103C5000C3B242EA8302116010BD000000E60F40CB
:103C60004FF0E020006940F005004FF0E0210861CE
:103C700070474FF0E020006940F002004FF0E02173
:103C80000861704710B51E480068401C1C49086058
:103C90001C480068401C1B4908601B48008820B174
:103CA00019480088401E184908801848007820B13B
:103CB00016480078401E154908701148006800F049
:103CC000070020B912480078401C114908701148BB
:103CD0000078522807D1104800F0DFFD18B10C48D9
:103CE00000780E4908700B484078522807D10C48DC
:103CF00000F0D3FD18B1064800780849487010BD9F
:103D000014030020180300204A030020A70300200A
:103D10001C030020F303002000C000409803002093
:103D200000D00040411E4FF0E0225161704700007A
:103D300010B50121094800F043FA0446214607481E
:103D400000F038FA4FF6FF72FF21044800F03EFA07
:103D5000FF21024800F027FA10BD000000000340D8
:103D600010B501210A4800F02BFA04462146084804
:103D700000F020FA4FF6FF724FF47F41044800F044
:103D800025FA4FF47F41024800F00DFA10BD000003
:103D90000000034010B50121094800F011FA044663
:103DA0002146074800F006FA4FF6FF72FF2104484B
:103DB00000F00CFAFF21024800F0F5F910BD0000F8
:103DC0000010034010B50121104800F0F9F9044635
:103DD00021460E4800F0EEF94FF6FF724FF47F4196
:103DE0000A4800F0F3F94FF47F41084800F0DBF98E
:103DF00007480068401C0649086000200549086023
:103E0000054800680549088010BD00000010034007
:103E1000D402002068000020140300204C0300207E
:103E200010B50121124800F0CBF904462146104894
:103E300000F0C0F94FF6FF72FF210D4800F0C6F9FF
:103E4000FF210B4800F0AFF90A480068401C0949FF
:103E50000860002008490860084800780849087090
:103E6000084800680849088001200849086010BD1A
:103E70000020034018020020600000201C030020E6
:103E8000A80300201403002056030020880000200F
:103E900010B501210A4800F093F90446214608486C
:103EA00000F088F94FF6FF724FF47F41044800F0AC
:103EB0008DF94FF47F41024800F075F910BD000004
:103EC0000020034010B50121134800F079F90446A1
:103ED0002146114800F06EF90122FF210E4800F042
:103EE00075F9FF210C4800F05EF90C480078312884
:103EF00000D110BD09480078322803D00748007867
:103F0000332807D106480078332803D1FF2102481F
:103F1000FDF7C4FC00BFECE700300340BC0100200B
:103F2000BD01002010B50121104800F049F90446F8
:103F300021460E4800F03EF901224FF47F410B4824
:103F400000F044F94FF47F41084800F02CF908488C
:103F50000078332808D107480078322804D14FF47C
:103F60007F410248FDF79AFC10BD0000003003407D
:103F7000BC010020BD01002010B50121184800F04F
:103F80001FF904462146164800F014F90122FF21CA
:103F9000134800F01BF9FF21114800F004F9114803
:103FA000007831280BD110480078312803D00E4812
:103FB0000078332803D1FF210948FDF76FFC094839
:103FC0000078322803D007480078332807D1064804
:103FD0000078312803D1FF210148FDF75FFC10BDB7
:103FE00000400340BC010020BD01002010B50121AC
:103FF0001F4800F0E5F8044621461D4800F0DAF8B5
:1040000001224FF47F411A4800F0E0F84FF47F415D
:10401000174800F0C8F817480078532822D11648EE
:104020000078312803D01448007832280CD1134886
:104030000078302803D011480078322804D14FF49A
:104040007F410B48FDF72AFC0B48007833280ED13E
:104050000A48007830280AD14FF47F410448FDF720
:104060001DFC04E04FF47F410148FFF7AFFB10BD9A
:104070000040034090010020BC010020BD01002051
:1040800010B501211D4800F09BF8044621461B484D
:1040900000F090F80122FF21184800F097F8FF2166
:1040A000164800F080F816480078532804D1FF2104
:1040B0001248FFF78BFB1FE012480078312803D02D
:1040C0001048007832280BD10F480078302803D0F0
:1040D0000D480078322803D1FF210848FDF7DEFBA8
:1040E00008480078332807D107480078302803D1E2
:1040F000FF210248FDF7D2FB10BD00000050034035
:1041000090010020BC010020BD010020C26840F2E7
:1041100001139A43C2600A0E0260114A1268114BE1
:104120001A40114B9A4211D1CAB201F4702342EAEB
:10413000131242F40072426001F47002C1F30723CB
:1041400043EA122242F40072826008E0CAB242F4EA
:1041500000724260C1F3072242F40072826070472D
:1041600000E00F400000FF7000000A1010B540F69C
:104170000C431940C3688B4302EA01042343C36024
:1041800010BD40F20223194012B1C3680B4301E095
:10419000C3688B43C3607047C26840F201130B4091
:1041A0009A43C2607047C26840F201130B401A4341
:1041B000C26070474162704782690A4382617047FA
:1041C000024609B1106A7047D069FCE7CBB203B16F
:1041D000826201F47F4303B1C2627047CBB203B184
:1041E000026301F47F4303B1426370470246FF2933
:1041F00001D1906C7047D06CFCE7000070B50121D4
:10420000464800F09AFB05462946444800F08FFBDB
:1042100005F02000002830D0414800784F2803D016
:1042200000204049086070BD3E48006818B1002079
:104230003C49086002E001203A490860002419E086
:10424000394800883949098888420BDA364802889B
:104250000088401C344B18803548815C2F4800F0A2
:1042600014FB05E000202E4908702E49086003E089
:10427000601CC4B20C2CE3DB00BF05F0500000282A
:1042800049D02848006818B100202649086002E09B
:1042900001202449086027480078452809D102E018
:1042A0001E4800F0E9FA1D4800F0F7FA0028F7D19F
:1042B000B9E72048007828B952201E49087000202C
:1042C0001D49088005F0100008B10C2400E01024FE
:1042D00017E019480088B0F5006F02DB002016498E
:1042E00008800E4800F0C8FA13490988134A505450
:1042F00011480088401C10490880601EC4B204B9EF
:1043000004E0064800F0C9FA0028E2D100BF0C48DA
:1043100000780C49087000BF85E7000000C000402D
:10432000F8030020A0000020EA4F0020E04F00200A
:10433000CC1B0020F3030020CC4F0020CC13002026
:104340001C0300209803002070B50121464800F0AE
:10435000F4FA05462946444800F0E9FA05F0200041
:10436000002830D0414840784F2803D000204049F1
:10437000086070BD3E48006818B100203C490860E4
:1043800002E001203A490860002419E039484088D9
:104390003949498888420BDA364842884088401CAF
:1043A000344B58803548815C2F4800F06EFA05E0A8
:1043B00000202E4948702E49086003E0601CC4B2FA
:1043C0000C2CE3DB00BF05F05000002849D0284842
:1043D000006818B100202649086002E00120244945
:1043E000086027484078452809D102E01E4800F0BF
:1043F00043FA1D4800F051FA0028F7D1B9E72048E8
:10440000407828B952201E49487000201D49488034
:1044100005F0100008B10C2400E0102417E0194842
:104420004088B0F5006F02DB0020164948800E4836
:1044300000F022FA13494988134A50541148408821
:10444000401C10494880601EC4B204B904E006480C
:1044500000F023FA0028E2D100BF0C4800780C4994
:10446000487000BF85E7000000D00040F80300203E
:10447000A0000020EA4F0020E04F0020CC270020C1
:10448000F3030020CC4F0020CC1F00201C03002091
:104490009803002070B50121464800F04EFA054609
:1044A0002946444800F043FA05F02000002830D0A7
:1044B000414880784F2803D000204049086070BDF3
:1044C0003E48006818B100203C49086002E0012025
:1044D0003A490860002419E03948808839498988B8
:1044E00088420BDA364882888088401C344B98809A
:1044F0003548815C2F4800F0C8F905E000202E49BE
:1045000088702E49086003E0601CC4B20C2CE3DB09
:1045100000BF05F05000002849D02848006818B1B5
:1045200000202649086002E001202449086027484D
:104530008078452809D102E01E4800F09DF91D4809
:1045400000F0ABF90028F7D1B9E72048807828B906
:1045500052201E49887000201D49888005F01000F7
:1045600008B10C2400E0102417E019488088B0F549
:10457000006F02DB0020164988800E4800F07CF9AD
:1045800013498988134A505411488088401C1049A7
:104590008880601EC4B204B904E0064800F07DF9CA
:1045A0000028E2D100BF0C4800780C49887000BF99
:1045B00085E7000000F00040F8030020A000002084
:1045C000EA4F0020E04F0020CC330020F30300200E
:1045D000CC4F0020CC2B00201C030020980300208F
:1045E00070B50121464800F0A8F90546294644481F
:1045F00000F09DF905F02000002830D04148C07837
:104600004F2803D000204049086070BD3E48006834
:1046100018B100203C49086002E001203A490860D6
:10462000002419E03948C0883949C98888420BDA22
:104630003648C288C088401C344BD8803548815CDD
:104640002F4800F022F905E000202E49C8702E49BD
:10465000086003E0601CC4B20C2CE3DB00BF05F073
:104660005000002849D02848006818B10020264989
:10467000086002E00120244908602748C0784528E6
:1046800009D102E01E4800F0F7F81D4800F005F9D6
:104690000028F7D1B9E72048C07828B952201E4930
:1046A000C87000201D49C88005F0100008B10C2416
:1046B00000E0102417E01948C088B0F5006F02DB55
:1046C00000201649C8800E4800F0D6F81349C98862
:1046D000134A50541148C088401C1049C880601EBD
:1046E000C4B204B904E0064800F0D7F80028E2D1CB
:1046F00000BF0C4800780C49C87000BF85E7000077
:1047000000100140F8030020A0000020EA4F002024
:10471000E04F0020CC3F0020F3030020CC4F0020CE
:10472000CC3700201C0300209803002070B5012125
:10473000464800F002F905462946444800F0F7F8DB
:1047400005F02000002830D0414800794F2803D0E0
:1047500000204049086070BD3E48006818B1002044
:104760003C49086002E001203A490860002419E051
:10477000394800893949098988420BDA3648028963
:104780000089401C344B18813548815C2F4800F06B
:104790007CF805E000202E4908712E49086003E0EE
:1047A000601CC4B20C2CE3DB00BF05F050000028F5
:1047B00049D02848006818B100202649086002E066
:1047C00001202449086027480079452809D102E0E2
:1047D0001E4800F051F81D4800F05FF80028F7D19E
:1047E000B9E72048007928B952201E4908710020F5
:1047F0001D49088105F0100008B10C2400E01024C8
:1048000017E019480089B0F5006F02DB0020164957
:1048100008810E4800F030F813490989134A5054B2
:1048200011480089401C10490881601EC4B204B9B7
:1048300004E0064800F031F80028E2D100BF0C483F
:1048400000780C49087100BF85E700000020014096
:10485000F8030020A0000020EA4F0020E04F0020D5
:10486000CC4B0020F3030020CC4F0020CC43002091
:104870001C03002098030020014600BF886900F057
:1048800010000028FAD10868704700BF826902F062
:104890002002002AFAD1016070470146886901228E
:1048A00022EA10107047F0B504460E4615461F4622
:1048B000204600F01EF8B6EB051F05D2206B40F035
:1048C000200020636D0803E0206B20F020002063AF
:1048D000F000B0FBF5F0401C43089809606203F05B
:1048E0003F00A062E7620020A061204600F011F8BE
:1048F000F0BD00BF816901F008010029FAD1C16A49
:1049000021F01001C162016B40F201329143016359
:104910007047C16A41F01001C162016B40F201327F
:1049200011430163704741EA0203436370474164E6
:104930007047826B0A4382637047024609B1106C6C
:104940007047D06BFCE7000016480078302828D16B
:1049500015484088362812D11448007818B9152017
:104960001349C87003E0114800781149C8700F4816
:1049700040780F4908710D488078487111E00B4864
:10498000007818B915200A49487103E007480078F3
:10499000074948710548407805498871034880787F
:1049A000C8717047BE0100208C010020F902002070
:1049B000AA0300201F4908780A2190FBF1F201FBAD
:1049C0001201C9B241F030011B4A51700A2190FB1B
:1049D000F1F1C8B2092805DD0A2190FBF1F201FBD3
:1049E0001201C8B240F03001134A1170134909781E
:1049F00030291CD11249096811B91249096801B15D
:104A0000704711494988362906D10B49497801F088
:104A10000F010E4A11700AE00749097801F00F01F1
:104A20000A4A11700449497801F00F01517000BF22
:104A3000E6E70000D0020020C2010020BE010020F5
:104A4000C4000020CC0000208C010020AA0300201C
:104A500010B54FF0804000F015F8044621464FF0A5
:104A6000804000F012F810BD10B54FF0804000F00B
:104A700006F810BD816841F0010181607047012195
:104A8000C1607047014608687047016070478168DF
:104A900041F0020181607047D0F8181441F4807130
:104AA000C0F81814704700000149C0F8001C704796
:104AB00051E5CC1A0FB4084B10B504A902AA03980B
:104AC00000F0DEF8044602A9002000F070FC204649
:104AD00010BC5DF814FB0000AF53000002E008C8F2
:104AE000121F08C1002AFAD170477047002001E068
:104AF00001C1121F002AFBD1704700002DE9FF5FA2
:104B000082B00021DDE90430020DDDF840B003433E
:104B100018D044F61050A2F2FF32424315141198F7
:104B200001281FD0A5EB0B00401C5FEA000A4FF0E4
:104B300000064E4FDFF83891B046504615D5CAF101
:104B4000000413E0119801244AA3012801D16FEA5F
:104B50000B010298119AC0E90031C0E9024206B087
:104B6000BDE8F09FCBF10000DFE704460021404A9A
:104B7000491842EB0450CDE9001012E0E00707D0DD
:104B800032463B4640464946FBF7D7FC80468946BD
:104B900032463B4610461946FBF7CFFC06460F4609
:104BA0006410002CEAD1DDE90401DDE90023BAF14B
:104BB000000F06DAFBF7C1FC42464B46FBF7BDFC93
:104BC00005E0FBF72CFD42464B46FBF728FD04466B
:104BD0000E460022284BFBF703FE03D84FF0FF30B0
:104BE000014607E00022254B20463146FBF7FEFB3D
:104BF000FBF72EFF102409E0002C0ADB0A22002319
:104C0000FBF730FE039B30321A55641E50EA010256
:104C1000F2D1641C039AC4F111031444119A012ABD
:104C200003D0012208430DD10AE0084304D000203C
:104C30004FF0110B119072E7A3EB0B056D1E0DE009
:104C40005B4504DD4FF0000205F1010504E003DAE5
:104C50004FF00002A5F10105002AECD0029811994D
:104C6000C0E90231C0E9004579E7000000001440C6
:104C70000000F03F300000000000F0430000E03F83
:104C80002DE9FF4F95B09B468946064600250FE269
:104C9000252877D100242746F84A0121059400E011
:104CA000044316F8013F203B01FA03F01042F7D10C
:104CB00030782A2811D06FF02F033078A0F130021D
:104CC000092A16D8059A44F0020402EB820203EB8B
:104CD00042021044761C0590EFE759F8042B059228
:104CE000002A03DA504244F40054059044F00204D0
:104CF000761C30782E2816D116F8010F44F00404E3
:104D00002A280DD06FF02F023078A0F13003092B44
:104D100009D807EB870302EB4303C718761CF3E7B8
:104D200059F8047B761C30786C280FD006DC4C28B0
:104D300017D068280DD06A2814D104E0742810D048
:104D40007A280FD10DE044F400140AE044F48014F2
:104D500001E044F440147278824202D104F58014D8
:104D6000761C761C307866280BD013DC582877D058
:104D700009DC002875D04528F6D04628F4D047280D
:104D80001AD19DE118E0632835D0642879D06528D0
:104D900012D195E1702873D008DC6728F1D069281A
:104DA0006FD06E280DD06F2806D1B5E073282CD0B7
:104DB000752875D0782874D05A46179990476D1C7D
:104DC00075E1C4F30250022809D003280DD0D9F8A8
:104DD000001004280DD00D6009F1040967E1D9F82D
:104DE0000010EA17C1E90052F6E7D9F800100D806B
:104DF000F2E70D70F0E719F8041B8DF800100020A1
:104E00008DF80100EA46012003E059F804AB4FF0A9
:104E1000FF3061074FF0000102D40DE008F10101FD
:104E20008846B9420FDA8045F8DB1AF808100029E5
:104E3000F4D108E008F1010188468142FADB1AF852
:104E400008100029F6D105985B46A0EB080721461B
:104E50003846179A00F094FA284400EB080507E05A
:104E60004DE029E10DE01AF8010B5A4617999047D9
:104E7000B8F10108F7D25B4621463846179A13E18C
:104E800042E00A220092C4F302524FF0000A022AC2
:104E900008D059F804CB032A4FEAEC710AD00DE090
:104EA00029E02AE009F1070121F00702F2E802C136
:104EB000914609E00FFA8CFC4FEAEC71042A03D109
:104EC0004FFA8CFC4FEAEC71002907DA0A46002100
:104ED000DCF1000C61EB02012D2202E0220504D579
:104EE0002B228DF80420012203E0E20701D02022CA
:104EF000F7E7904659E00A2102E010220DE0102168
:104F00004FF0000A00910BE010224FF0000A44F02D
:104F100004040827009203E008224FF0000A0092E0
:104F2000C4F30252022A05D059F804CB0021032A07
:104F300008D009E009F1070121F00702F2E802C1F7
:104F4000914605E01FFA8CFC042A01D10CF0FF0CFD
:104F50004FF00008220728D5702806D0009B83F068
:104F6000100353EA0A0305D00EE040228DF8042016
:104F7000012208E05CEA010206D030228DF804200C
:104F80008DF8050002229046009B83F0080353EA47
:104F90000A030AD15CEA010201D1620705D5302279
:104FA0008DF804204FF001087F1E582804D034A04B
:104FB00003900EA802900DE036A0F9E75346604634
:104FC000009AFBF74FFC84460398825C0298401ECF
:104FD000029002705CEA0100F0D1029806A9081A5A
:104FE00000F1200A600702D524F4803400E0012794
:104FF000574502DDA7EB0A0000E0002000EB0A01A4
:10500000009005984144401A0590E00306D45B46A1
:105010002146179A059800F0B3F90544002706E0E9
:1050200001A85A46C05D179990476D1C7F1C4745E3
:10503000F6DBE0030CD55B462146179A059800F095
:105040009FF9054404E030205A46179990476D1C9B
:105050000099481E00900029F5DC08E002980299AA
:105060005A460078491C0291179990476D1CBAF175
:105070000001AAF1010AF1DC65E100000928010044
:1050800030313233343536373839616263646566BE
:105090000000000030313233343536373839414280
:1050A000434445460000000000F058F90544761CD2
:1050B000307800287FF4ECAD19B02846BDE8F08FB9
:1050C000620700D4062709F1070222F0070CFCE86A
:1050D0000223E14603F000485FEA080C02D00FF219
:1050E000702C0DE05FEA045C02D50FF2682C07E03B
:1050F0005FEAC47C02D00FF2602C01E0AFF2700CCA
:105100004FF0FF3823F00043CDF850C065280CD095
:1051100006DC452809D046281DD047283DD13DE072
:10512000662818D067287ED138E00021112F01DBD6
:10513000112000E0781CCDE9000106A90EA8FFF7B8
:10514000DDFCDDE90F010E9A03910021009207F1C9
:10515000010A04914DE04FF000400097CDE90110A5
:1051600006A90EA8FFF7CAFCDDE90F0203920E9B09
:1051700011990022DDF80CA00093049211B9791C5A
:1051800000EB010AB7EB0A0004D4C0F1FF3007F1CD
:10519000010A0490AAEB0700019044E0012F00DA15
:1051A00001270021112F01DD112000E03846CDE953
:1051B000000106A90EA8FFF7A1FCDDE90F010E9A78
:1051C0000391002104910092BA4621070CD403995F
:1051D000514500DA8A46BAF1010F05DD009AAAF1BD
:1051E0000101515C302908D0B84202DA10F1040FF5
:1051F00006DA0121CDE9011015E0AAF10101E9E784
:10520000002805DC049901440491AAEB000102E0A6
:10521000411C514500DD8A460499401A401C01900A
:105220004FF000400290200704D40198504501DB64
:10523000CDF8048000208DF84F0002980DF14F0743
:10524000B0F1004F25D02B200E9002984FF00208AD
:1052500000280CDA404202902D200E9007E00A212F
:105260000298FBF7E9FA3031029007F8011DB8F116
:105270000001A8F10108F2DC02980028EFD1791EA4
:105280000E980870307800F0200040F0450007F8D4
:10529000020D12A8C01B00F107081498007800B195
:1052A000012000EB0A01019801EBE07105984144EF
:1052B000401A401E0590E00306D45B462146179A2B
:1052C000059800F05DF805441498007818B15A4626
:1052D000179990476D1CE00324D55B462146179A29
:1052E000059800F04DF805441CE00498002807DB01
:1052F000DDE90301884203DD0098405C179901E075
:10530000179930205A469047049805F10105401C32
:1053100004900198401E019004D12E205A461799FE
:1053200090476D1CBAF10001AAF1010ADDDC05E02D
:1053300017F8010B5A46179990476D1CB8F10001F8
:10534000A8F10108F4DC5B462146179A0598ABE604
:105350002D0000002B000000200000002DE9F0418E
:10536000044600251E461746880404D405E0394645
:105370002020B0476D1C641EF9D52846BDE8F08199
:105380002DE9F041044600251E469046C80301D58C
:10539000302700E02027880404D505E04146384640
:1053A000B0476D1C641EF9D52846BDE8F0810A6837
:1053B000531C0B60107070474FF4FA70FAF776FFC9
:1053C0001248FAF773FFFDF7FFFFFDF713FBFDF738
:1053D000B5F80F48FAF76AFFFDF7A2FDFDF786FD65
:1053E000FDF75AFFFDF7B2FDFDF716FBFCF738FF9E
:1053F000FCF75EFFFDF782FFFDF760FAFDF7ECFFBB
:1054000000BFFFF725FBFCF735FBFAE708AF2F00DD
:10541000105E5F0040420F0000201C0080841E00D0
:1054200000802500999E36000040380000093D00AC
:1054300000803E0000004B00404B4C0000204E001E
:10544000808D5B0000C05D000080700000127A005B
:1054500000007D0080969800001BB7000080BB0014
:10546000C0E8CE00647ADA000024F4000000FA00FC
:1054700080A81201002D310100366E0140787D01B7
:1054800040000000000000003E0008000000000096
:10549000A0000000020000003454010000000000E1
:1054A0002B70060000000000280000000000000033
:1054B00027000100000000002000000000000000A4
:1054C00050000000020000001AAC000000000000C4
:1054D0001794090000000000169805000000000065
:1054E000140000000000000013800800000000000D
:1054F000A0000000080000001000000000000000F4
:10550000280000000200000040000000040000002D
:1055100060000000000000005D000C0000000000C2
:1055200050000000000000004E00020000000000DB
:1055300041AC0100000000003C0000000000000041
:105540003A80090000000000300000000000000068
:1055500028000000000000002700010000000000FB
:105560002360060000000000216008000000000029
:105570001E000000000000001DC00400000000002C
:1055800050000000020000001800000000000000B1
:105590001400000000000000600000000400000093
:1055A0000024F4003000300080C3C9017100710094
:1055B00080F0FA02B200B20000879303D300D30058
:1055C00000B4C4041401140100E1F50555015501AE
:1055D000000E27079601960100D0121300389C1C7C
:1055E000000100024012401380238024C034C035E3
:1055F000C045C046C056C057C067C068C078C079B3
:105600000040004010000000008005401000000035
:105610000050004011000000009005401100000003
:10562000006000401200000000A0054012000000D1
:10563000007000401300000000B00540130000009F
:10564000004002401400000000C0054014000000AB
:10565000005002402E00000000D005402E00000047
:10566000006002402F00000000E005402F00000015
:10567000007002403000000000F0054030000000E3
:1056800000D0034046000000000006404600000035
:1056900000100640470000000020064048000000BF
:1056A000003006407F0000000040064080000000FF
:1056B0000050064084000000006006408C0000009E
:1056C0000040004010000000008005401000000075
:1056D0000050004011000000009005401100000043
:1056E000006000401200000000A005401200000011
:1056F000007000401300000000B0054013000000DF
:10570000004002401400000000C0054014000000EA
:10571000005002402E00000000D005402E00000086
:10572000006002402F00000000E005402F00000054
:10573000007002403000000000F005403000000022
:1057400000D003404300000000000640430000007A
:105750000010064044000000002006404500000004
:10576000003006405800000000400640590000008C
:10577000005006405C00000000600640640000002D
:10578000004000400080054000500040009005406F
:105790000060004000A005400070004000B00540DF
:1057A0000040024000C005400050024000D00540CB
:1057B0000060024000E005400070024000F005403B
:1057C00000D00340000006400010064000100640D4
:1057D0000020064000200640003006400030064011
:1057E0000040064000400640005006400050064081
:1057F00000600640006006400070064000700640F1
:105800000080064000800640009006400090064060
:105810000007000000060000000500000004000072
:105820000003000000020000000100000000000072
:105830000000000018ED00E01CED00E020ED00E0AD
:1058400000E400E004E400E008E400E00CE400E030
:1058500010E400E014E400E018E400E01CE400E0E0
:1058600020E400E024E400E028E400E02CE400E090
:1058700030E400E034E400E038E400E03CE400E040
:1058800040E400E044E400E048E400E04CE400E0F0
:1058900050E400E054E400E058E400E05CE400E0A0
:1058A00060E400E064E400E068E400E06CE400E050
:1058B00070E400E074E400E078E400E07CE400E000
:1058C00080E400E084E400E088E400E000E100E03F
:1058D00004E100E008E100E00CE100E010E100E09C
:1058E00080E100E084E100E088E100E08CE100E09C
:1058F00090E100E000E200E004E200E008E200E005
:105900000CE200E010E200E080E200E084E200E06F
:1059100088E200E08CE200E090E200E04D34563195
:105920002E302E300D0010121692960060090C02D7
:1059300060090C0260090C0260090C0260090C028B
:10594000A00301000000000000FFFF1FA0030200F1
:105950000000000000FFFF1F100003000000010016
:10596000FFFFFF1FE0030400000000100FFFFF1FF8
:10597000E00305000000021000FFFF1FE003060027
:105980000000021000FFFF1FE003070000000410EA
:105990000FFFFF1FE00308000800081008FF0110B8
:1059A000E00309000800081008FF011040000A0089
:1059B00000000110FFFFFF1F50000B00000003104C
:1059C000FFFFFF1F40000C0000000510FFFFFF1F3E
:1059D00050000D0000000910FFFFFF1FE003010051
:1059E00002000010FFFF0018E00302000200001098
:1059F000FFFF00185000030002000010FFFFFF1F10
:105A000000C0004000D0004000F000400010014005
:105A1000002001400000014000E000400030014053
:105A20000040004000500040006000400070004016
:105A300000400240005002400060024000700240FE
:105A400000D0034000100640002006400030064011
:105A5000004006400050064000300640003006403E
:105A600000300640003006400030064008040220A6
:105A7000400000001D0300201E0300201F03002023
:105A8000200300202103002022030020D800002052
:105A9000DC000020E0000020E4000020E8000020FE
:105AA000EC000020F00000200050024000500240B6
:105AB000005002400200000004000000010000004D
:105AC000E05A00000000002038040000A40A000092
:105AD000EC5A000038040020D04F0000EC4A0000CF
