:020000040000FA
:100000000808002079000000910000009300000023
:10001000DB000020DB000020DB00002000000000EF
:10002000000000000000000000000000950000003B
:10003000DB00002000000000DB000020DB000020CF
:10004000DB00002000200021C2F20001134A50F81A
:10005000043B41F8043B9142F9DB0020104A41F88F
:10006000040B9142FBDB4EF60850CEF2000000215B
:10007000C2F20001016070474FF0080149F64040AC
:100080000138FDD10139F9D1FFF7DCFFDFF814F0B9
:10009000FEE7FEE7FFF7D6FFDFF80CF008070020C9
:1000A00008080020AD000020D100002000F0DBFA9D
:1000B00018B100F05DFA00F02DB942F200004EF6E2
:1000C0000851CEF200010860D0F800D04068004727
:1000D0000020D0F800D000F046BAFEE70138FDD18C
:1000E000704700004121F94A116001200EE000BF75
:1000F000F649096A11F4004FFAD1B021F34A51626E
:1001000000215163916311460862401C2028EEDDF6
:10011000EE49496870470CB500BFEC4A126A12F408
:10012000004FFAD1F3214FF484500022ADF804209F
:1001300049F60272ADF806200022ADF800204DF617
:100140000272ADF80220E14A5162BDF80420DF4B93
:100150009A62BDF80620DA62BDF800201A63BDF885
:1001600002205A631A46906301221A620CBD2DE9DF
:10017000F04102460C463B27DFF850C3CCF88470B0
:100180004FF0010CDFF84483C8F880C000BFDFF8EF
:100190003CC3DCF880C01CF4004FF8D1DFF82CC35E
:1001A000DCF890C01FFA8CF5DFF820C3DCF894C0AF
:1001B0001FFA8CF6DFF814C3DCF898C01FFA8CF332
:1001C000C6F30C0C45EA0C4CC4F800C003F4404CD8
:1001D000BCF5004F2DD103F00F001146DFF8ECC243
:1001E000DCF89CC0A1F800C0DFF8E0C2DCF8A0C0D9
:1001F000A1F802C0DFF8D4C2DCF8A4C0A1F804C0A2
:10020000DFF8C8C2DCF8A8C0A1F806C04FF0040CA3
:10021000DFF8B882C8F884C04FF0010CC8F880C07D
:1002200000BFDFF8A8C2DCF880C01CF4004FF8D192
:1002300001E04FF0FF30BDE8F0812DE9F0410346C9
:1002400000BFDFF888C2DCF820C01CF4004FF8D1F2
:10025000B3249DB2C3F30C4C4CF4604602F00F0C77
:100260004CF4C0770846B0F800C0DFF86082C8F8E8
:100270003CC0B0F802C0C8F840C0B0F804C0C8F82C
:1002800044C0B0F806C0C8F848C0C446CCF8244002
:10029000CCF83050CCF83460CCF838704FF0020C09
:1002A000C8F820C0BDE8F08110B50446FFF71AFF7A
:1002B0002CB145F6C0008549C86000208861002047
:1002C00082490860FFF727FF10BD38B505460C4688
:1002D00000BF7F4800680028FBD069462846FFF72A
:1002E00046FF2060009838BD2DE9F04105460E46D6
:1002F00017464FF47A7400E0641E1CB1754800681C
:100300000028F9D124B13A4631462846FFF795FF37
:10031000BDE8F0811CB57048006801280CD10022AE
:1003200011466E48FFF7E0FF6D48FFF7D7FE6848BB
:10033000006808B9FFF7C1FE14E10020019001A98F
:100340006848FFF7C2FF0546002000906649681A1A
:100350008D4212D005DC6548281808D0402871D19C
:100360008EE0402804D0B0F5807FF8D1F4E0F3E0CF
:100370005F486049086000BFFEE75F480068F0B969
:1003800001205E49486100240CE05C4804605C4840
:100390005A49886000BF5948806810F0020FFAD1AE
:1003A00004F58064B4F5005FEFD35448C06810F0E2
:1003B000010F04D0002053490860012000905148EB
:1003C0000068019988423ED301204C4948614E485B
:1003D00000684C490968884207D1424800684B4987
:1003E000086040484068486017E0002011E042493A
:1003F00009680144414A11603A490958516040492D
:10040000491E916000BF3D49896811F0010FFAD182
:10041000001D01998842EAD300BF3848C06810F037
:10042000010F02D0012000900FE0364800680199CA
:10043000401A3449086030480068019908442E4940
:10044000086002E085E0012000902E480068B0B905
:10045000002011E02E4909680144284A11602B4907
:10046000095851602649491E916000BF2349896897
:1004700011F0010FFAD1001D0828EBD300BF6BE08B
:10048000184800681C490860164840681D49086003
:10049000084600681C490860174800681C49086045
:1004A000184801681448006800F006F910B90120E6
:1004B000009051E01748806880B2401CC6020120BD
:1004C0000E4948610C48046833E000000000044015
:1004D0002001044000010440040700208001021FA5
:1004E000801A0600EC0600208000021F0000FEE0DB
:1004F0000400FA050CED00E0E406002000D00F40F7
:10050000020042A4E8060020FC060020F4060020B9
:100510000007002000E00F403048046030482F49B9
:10052000886000BF2D48806810F0020FFAD104F5F2
:100530008064B442F0D32948C06810F0010F01D0A4
:10054000012000909DF8000010B1002025490860AE
:1005500002E00120009000BF00BF0122694622484E
:10056000FFF7C2FEE9E60020FFF79EFEFFF7D2FE8E
:1005700010B51E48006E20F001001C4908664FF4BB
:100580000020FFF7ABFD1948006E20F4FE6040F438
:100590006070164908661648006840F08070C1F81F
:1005A00000010846D0F8080140F00100C1F8080138
:1005B0004FF00300FFF792FD0E48006840F0300056
:1005C0000C4908600B48FC30006840F030000949D5
:1005D000FC3108600120FFF767FE10BD00D00F401E
:1005E000020042A4E80600200001021F00E00F40C4
:1005F00000E10F402044004010B52948006840F059
:1006000002002849C1F808014FF00300FFF766FD1A
:100610002548006840F010002349086022481C3833
:10062000006840F0100020491C3908601E480C3852
:10063000006840F010001C490C3908601A480C3062
:10064000006820F0100018490C3108604FF47A70EF
:10065000FFF744FD1548006C18B9012014490860E3
:1006600010BD0020FCE710B50020114908604FF4D0
:1006700000542068401C0DD020686FF31300B0F1C7
:10068000005F07D16068401C04D00A4960680840D8
:10069000012801D0012010BDFFF7AEFFFBE70000ED
:1006A00008E10F4000E00F401C55004000500040A2
:1006B000040700200100F0FF02460948806880B26C
:1006C000401CC302B2F5005F05D15018984202D811
:1006D00012F0030F01D0002070470120FCE700005A
:1006E00000E00F40000000000000000000000000DB
:1006F00000000000000000000000000000000000FA
:080700000000000000000000F1
:04000005000000797E
:00000001FF
